:100000000C9430000C9450000C9450000C94500050
:100010000C9450000C9450000C9450000C947900F7
:100020000C9452000C9450000C9450000C9450000E
:100030000C949F000C9450000C9450000C945000B1
:100040000C9450000C9450000C9450000C945000F0
:100050000C9450000C9450000C9450000C945000E0
:1000600011241FBECFEFDFE0DEBFCDBF11E0A0E661
:10007000B0E0EAE6F7E00FEF03950BBF04C0C895C8
:100080000D923196C8F3A632B107C9F711E0A6E286
:10009000B1E001C01D92A433B107E1F70C942A012D
:1000A0000C9400001F920F920FB60F9211242F9301
:1000B0003F934F935F936F937F938F939F93AF93F0
:1000C000BF93EF93FF9361E08FEC90E00E942603D3
:1000D000FF91EF91BF91AF919F918F917F916F9120
:1000E0005F914F913F912F910F900FBE0F901F90F6
:1000F00018951F920F920FB60F9211242F933F93D2
:100100004F935F936F937F938F939F93AF93BF931F
:10011000EF93FF938091EE000E944E02FF91EF91CA
:10012000BF91AF919F918F917F916F915F914F910F
:100130003F912F910F900FBE0F901F9018951F9217
:100140000F920FB60F9211242F933F934F935F930B
:100150006F937F938F939F93AF93BF93CF93EF93BF
:10016000FF93C1E0C093270180912B018C0F8093F6
:100170002B01843649F4C093280180912C018C0F07
:1001800080932C0110922B0180912C018C3349F427
:10019000C093290180912D018F5F80932D011092D2
:1001A0002C0180912D018C3321F4C0932A011092EF
:1001B0002D0162E089EC90E00E94260380912801E5
:1001C000813029F463E08BEC90E00E94260380915B
:1001D0002901882329F06C2F8EEC90E00E942603E1
:1001E00080912A01882329F060E086E291E00E9454
:1001F00026031092270110922801109229011092D3
:100200002A01FF91EF91CF91BF91AF919F918F9173
:100210007F916F915F914F913F912F910F900FBE02
:100220000F901F9018958FEF8ABB87BB88BB11BAC0
:1002300089B7806C89BF8AB7806A8ABF8CE990E0F1
:100240008BBD80E49CE98ABD89E08EBD87B7806163
:1002500087BF0895CFEFDFE0DEBFCDBF0E9413015F
:100260000E94700280E090E00C94B40361507040F2
:10027000804090406F3F2FEF72072FEF82072FEFE4
:10028000920731F000006150710981099109D0F79E
:100290000895789488B391E0892788BB0E945C0216
:1002A0000895789488B392E0892788BB0E945C0205
:1002B000089578948BB391E089278BBB88B394E041
:1002C000892788BB0E945C020895789488B398E0DF
:1002D000892788BB0E945C020895789488B390E1D6
:1002E000892788BB0E945C020895789488B390E2C5
:1002F000892788BB0E945C0208951F93789488B375
:1003000010E4812788BB60E573EC80E090E00E94F8
:10031000360188B3812788BB60E573EC80E090E00C
:100320000E94360188B3812788BB0E945C021F911E
:1003300008951F93789488B310E8812788BB60E5FF
:1003400073EC80E090E00E94360188B3812788BB7F
:1003500060E573EC80E090E00E94360188B381276D
:1003600088BB0E945C021F9108950FB6F8940F920B
:10037000809132019091310189230E948302982F4C
:10038000809133018F3F09F460C080913301891758
:1003900008F069C00F921F922F923F924F925F9286
:1003A0006F927F928F929F92AF92BF92CF92DF9285
:1003B000EF92FF920F931F932F933F934F935F936F
:1003C0006F937F938F939F93AF93BF93CF93DF935D
:1003D000EF93FF930FB60F92809133018F93909319
:1003E000330180913301E82FFF27EE0FFF1FEE52FC
:1003F000FF4F0190F081E02D09958F91809333019B
:10040000809133010F900FBEFF91EF91DF91CF915B
:10041000BF91AF919F918F917F916F915F914F911C
:100420003F912F911F910F91FF90EF90DF90CF9010
:10043000BF90AF909F908F907F906F905F904F9004
:100440003F902F901F900F900EC09093330180919A
:100450003301E82FFF27EE0FFF1FEE52FF4F0190F1
:10046000F081E02D09950F900FBE08950FB6F89416
:100470000F92809132010E94830280933301809118
:100480003301E82FFF27EE0FFF1FEE52FF4F0190C1
:10049000F081E02D09950F900FBE0895982F0FB6AB
:1004A000F8940F9280913201892B809332010E943F
:1004B000B5010F900FBE0895F89480913301E82F95
:1004C000FF27EE0FFF1FEE51FF4F90819095809117
:1004D00032018923809332018FEF80933301089595
:1004E0007894109232018FEF809331018093330121
:1004F000809132018823E1F30E943602809132011B
:100500008823D1F7F5CF8031D8F0803488F0282FB8
:10051000332727FD3095209530952227330F221F52
:10052000332787E090E0821B930B282F392F19C0C7
:10053000803218F025E030E014C024E030E011C033
:10054000843040F0883018F023E030E00AC022E028
:1005500030E007C0823018F021E030E002C020E037
:1005600030E0932F822F0895CF93DF930FB6F89446
:100570000F92C82FDD27C053DF4F88819091020171
:100580008917ACF0892F0E940203888180930201B1
:10059000E82FFF27E7FDF095EE0FFF1FED5FFE4F01
:1005A000809131019281892B8095809331010F9048
:1005B0000FBEDF91CF9108950FB6F8940F92E82FF8
:1005C000FF27E053FF4F9081809102019817B9F403
:1005D00082E091E00E94130380910201E82FFF273F
:1005E000E7FDF095EE0FFF1FED5FFE4F80913101AB
:1005F000928189238095809331010E94B5010F90EB
:100600000FBE0895982F0FB6F8940F9280912E0187
:10061000EFE2F1E0E80FF11D90838F5F80932E01F0
:100620000F900FBE0895B92FA82F0FB6F8940F9210
:1006300080912E01815080932E01EFE2F1E0E80FCE
:10064000F11D80818C930F900FBE08950F931F931F
:10065000CF93DF93482F592F262F332721153105AC
:10066000D1F0042F152FD32FC22FF12FE02F81911E
:100670000E2F1F2F282F3327932F822F44E0880F10
:10068000991F4A95E1F7821B930B805A9F4F0E9456
:100690005003219751F7DF91CF911F910F9108954A
:1006A000CF93DF93D92FC82F88818130F1F48E81C9
:1006B0009F81A885B9850197A109B1098E839F8380
:1006C000A887B9870097A105B10579F48C2F9D2FD4
:1006D0000E9478038981823041F48A819B81AC81B8
:1006E000BD818E839F83A887B987DF91CF910895BD
:1006F000CF93DF93D92FC82F8A8599278130910511
:1007000049F08230910594F08230910579F0039799
:1007100029F00CC08D850E944E0208C08C2F9D2FA1
:100720000E9499038C2F9D2F0E949D03DF91CF91F2
:100730000895F92FE82F10820895F92FE82F858565
:100740009927F92FE82F54E0EE0FFF1F5A95E1F794
:10075000E81BF90BE05AFF4F81E080830895F92FE1
:0A076000E82F81E080830895FFCFA9
:10076A000102E8030000E8030000010000040001A0
:10077A00027017000070170000010000100001024B
:10078A000100000001000000010000010001020256
:10079A0000000002000000010000020001023C000B
:1007AA0000003C00000001000020000102010000DE
:1007BA00000100000001000008000102030000001F
:1007CA000300000001000080000001020304050686
:1007DA00000149015101590165016D0175017D0150
:1007EA0099010100020004000800100020004000E6
:1007FA0080000001000200040008001000200040F0
:10080A000080FF00000100030007000F001F003FE7
:10081A00007F00FF00FF01FF03FF07FF0FFF1FFF1D
:06082A003FFF7FFFFF000D
:00000001FF
