:100000000C9430000C9450000C9450000C94500050
:100010000C9450000C9450000C9450000C947E00F2
:100020000C9452000C9450000C9450000C9450000E
:100030000C94AA000C9450000C9450000C945000A6
:100040000C9450000C9450000C9450000C945000F0
:100050000C9450000C9450000C9450000C945000E0
:1000600011241FBECFEFDFE0DEBFCDBF11E0A0E661
:10007000B0E0E0EBFCE00FEF03950BBF04C0C895C8
:100080000D923196C8F3A633B107C9F711E0A6E384
:10009000B1E001C01D92A436B107E1F70C946801EC
:1000A0000C9400001F920F920FB60F9211242F9301
:1000B0003F934F935F936F937F938F939F93AF93F0
:1000C000BF93EF93FF93CF93DF93CDB7DEB789EC68
:1000D00090E00E94BC04DF91CF91FF91EF91BF911E
:1000E000AF919F918F917F916F915F914F913F91D0
:1000F0002F910F900FBE0F901F9018951F920F9287
:100100000FB60F9211242F933F934F935F936F93EA
:100110007F938F939F93AF93BF93EF93FF93CF936F
:10012000DF93CDB7DEB78091FE000E940403DF911C
:10013000CF91FF91EF91BF91AF919F918F917F915F
:100140006F915F914F913F912F910F900FBE0F9044
:100150001F9018951F920F920FB60F9211242F9394
:100160003F934F935F936F937F938F939F93AF933F
:10017000BF93EF93FF93CF93DF93CDB7DEB781E0CB
:100180008093570180915B018F5F80935B01809129
:100190005B01843651F481E08093580180915C01C9
:1001A0008F5F80935C0110925B0180915C018C33C6
:1001B00051F481E08093590180915D018F5F8093BC
:1001C0005D0110925C0180915D018C3329F481E026
:1001D00080935A0110925D0180915701813029F47A
:1001E00062E088ED90E00E947C04809158018130AB
:1001F00029F464E08AED90E00E947C04809159012A
:10020000813029F461E08EED90E00E947C048091C1
:100210005A01813029F460E086E591E00E947C0477
:1002200010925701109258011092590110925A01E0
:10023000DF91CF91FF91EF91BF91AF919F918F91FE
:100240007F916F915F914F913F912F910F900FBED2
:100250000F901F901895CF93DF93CDB7DEB72297FD
:100260000FB6F894DEBF0FBECDBF80E49CE9898352
:100270009A838FEF80933A008FEF809337008FEF50
:10028000809338001092310080915900806C8093E7
:10029000590080915A00806A80935A0089819A811E
:1002A000892F992780934B00898180934A0089E0A8
:1002B00080934E0080915700806180935700229672
:1002C0000FB6F894DEBF0FBECDBFDF91CF9108957A
:1002D000CFEFDFE0DEBFCDBF0E942B010E944403C1
:1002E00080E090E00C945706CF93DF93CDB7DEB754
:1002F00024970FB6F894DEBF0FBECDBF69837A8313
:100300008B839C8389819A81AB81BC810197A109F0
:10031000B10989839A83AB83BC838F3F2FEF920708
:100320002FEFA2072FEFB20709F402C00000EACFB7
:1003300024960FB6F894DEBF0FBECDBFDF91CF91EC
:100340000895CF93DF93CDB7DEB7789480913800CE
:1003500091E08927809338000E942503DF91CF9197
:100360000895CF93DF93CDB7DEB7789480913800AE
:1003700092E08927809338000E942503DF91CF9176
:100380000895CF93DF93CDB7DEB7789490913B007B
:1003900081E0892780933B009091380084E0892791
:1003A000809338000E942503DF91CF910895CF9369
:1003B000DF93CDB7DEB778948091380098E0892735
:1003C000809338000E942503DF91CF910895CF9349
:1003D000DF93CDB7DEB778948091380090E189271C
:1003E000809338000E942503DF91CF910895CF9329
:1003F000DF93CDB7DEB778948091380090E28927FB
:10040000809338000E942503DF91CF910895CF9308
:10041000DF93CDB7DEB778948091380090E48927D8
:10042000809338000E942503DF91CF910895CF93E8
:10043000DF93CDB7DEB7789487E00E94E905882383
:10044000F1F09091380080E889278093380060E5CA
:1004500073EC80E090E00E9474019091380080E895
:1004600089278093380060E573EC80E090E00E947B
:1004700074019091380080E88927809338000E94A9
:100480002503DF91CF910895CF93DF93CDB7DEB7EA
:1004900021970FB6F894DEBF0FBECDBF0FB6F8940C
:1004A0000F92909162018091610189230E9459030A
:1004B0008983809163018F3F09F466C0998180919F
:1004C0006301891708F073C00F921F922F923F9219
:1004D0004F925F926F927F928F929F92AF92BF9254
:1004E000CF92DF92EF92FF920F931F932F933F9340
:1004F0004F935F936F937F938F939F93AF93BF932C
:10050000CF93DF93EF93FF930FB60F928091630128
:100510008F9389818093630180916301282F332712
:10052000932F822F820F931FF92FE82FEE51FF4F49
:100530000190F081E02D09958F9180936301809166
:1005400063010F900FBEFF91EF91DF91CF91BF91AB
:10055000AF919F918F917F916F915F914F913F915B
:100560002F911F910F91FF90EF90DF90CF90BF9050
:10057000AF909F908F907F906F905F904F903F9043
:100580002F901F900F9013C08981809363018091F9
:100590006301282F3327932F822F820F931FF92F68
:1005A000E82FEE51FF4F0190F081E02D09950F905B
:1005B0000FBE21960FB6F894DEBF0FBECDBFDF9100
:1005C000CF910895CF93DF93CDB7DEB70FB6F894F0
:1005D0000F92809162010E94590380936301809180
:1005E0006301282F3327932F822F820F931FF92F18
:1005F000E82FEE51FF4F0190F081E02D09950F900B
:100600000FBEDF91CF910895CF93DF93CDB7DEB7C3
:1006100021970FB6F894DEBF0FBECDBF89830FB60A
:10062000F8940F92809162019981892B80936201E5
:100630000E9444020F900FBE21960FB6F894DEBFC1
:100640000FBECDBFDF91CF910895CF93DF93CDB78C
:10065000DEB7F89480916301282F3327932F822FE0
:10066000820F931FF92FE82FEE50FF4F8081982FB4
:100670009095809162018923809362018FEF80932E
:100680006301DF91CF910895CF93DF93CDB7DEB7AC
:100690007894109262018FEF809361018FEF8093C5
:1006A000630180916201882309F4FBCF0E94E2027A
:1006B000F8CFCF93DF93CDB7DEB723970FB6F8947B
:1006C000DEBF0FBECDBF898389818031E8F089818B
:1006D000803468F0898188232CF487E090E08A8355
:1006E0009B832CC086E090E08A839B8327C089810E
:1006F000803228F085E090E08A839B831FC084E0ED
:1007000090E08A839B831AC08981843068F0898154
:10071000883028F083E090E08A839B830FC082E0DA
:1007200090E08A839B830AC08981823028F081E02F
:1007300090E08A839B8302C01A821B828A819B81FC
:1007400023960FB6F894DEBF0FBECDBFDF91CF91D9
:100750000895CF93DF93CDB7DEB721970FB6F89406
:10076000DEBF0FBECDBF89830FB6F8940F9289818B
:100770009927F92FE82FE052FF4F908180911201C5
:10078000981714F1809112010E942E0489819927F3
:10079000F92FE82FE052FF4F808180931201809162
:1007A0001201282F332727FD3095932F822F820F98
:1007B000931FF92FE82FEB5EFE4F9091610180812E
:1007C000892B8095809361010F900FBE21960FB603
:1007D000F894DEBF0FBECDBFDF91CF910895CF93C8
:1007E000DF93CDB7DEB721970FB6F894DEBF0FBE0B
:1007F000CDBF89830FB6F8940F9289819927F92F7D
:10080000E82FE052FF4F9081809112019817D9F4A0
:1008100082E191E00E94540480911201282F332735
:1008200027FD3095932F822F820F931FF92FE82FEA
:10083000EB5EFE4F909161018081892380958093CA
:1008400061010E9444020F900FBE21960FB6F894EA
:10085000DEBF0FBECDBFDF91CF910895CF93DF9361
:10086000CDB7DEB721970FB6F894DEBF0FBECDBF70
:1008700089830FB6F8940F92AEE5B1E02C91822FE8
:100880009927F92FE82FE15AFE4F898180832F5F46
:100890002C930F900FBE21960FB6F894DEBF0FBEBB
:1008A000CDBFDF91CF910895CF93DF93CDB7DEB762
:1008B00022970FB6F894DEBF0FBECDBF89839A830F
:1008C0000FB6F8940F92A981BA8180915E01815090
:1008D00080935E019927F92FE82FE15AFE4F80811E
:1008E0008C930F900FBE22960FB6F894DEBF0FBE0A
:1008F000CDBFDF91CF910895CF93DF93CDB7DEB712
:1009000025970FB6F894DEBF0FBECDBF89839A83BB
:100910006B831C821D828B81282F33278C819D81C4
:10092000821793070CF01FC029813A818C819D8129
:10093000F32FE22FE80FF91F8081282F3327932F01
:10094000822F82959295907F9827807F9827821B8F
:10095000930B805A9F4F0E94BC048C819D8101960D
:100960008C839D83D8CF25960FB6F894DEBF0FBE3B
:10097000CDBFDF91CF910895CF93DF93CDB7DEB791
:1009800022970FB6F894DEBF0FBECDBF89839A833E
:10099000E981FA8180818130B1F529813A81E9814B
:1009A000FA8186819781A085B1850197A109B10956
:1009B000F32FE22F86839783A087B187E981FA819D
:1009C00086819781A085B1850097A105B105D9F4ED
:1009D00089819A810E940C0529813A81E981FA81F5
:1009E00082819381A481B581F32FE22F868397833F
:1009F000A087B187E981FA818181813021F48981E1
:100A00009A810E944C0522960FB6F894DEBF0FBE65
:100A1000CDBFDF91CF910895CF93DF93CDB7DEB7F0
:100A200022970FB6F894DEBF0FBECDBF89839A839D
:100A3000E981FA818285992781709070009751F041
:100A4000E981FA81A981BA816485FB2FEA2F838528
:100A50000E94A705E981FA818285992788709070A4
:100A6000009721F089819A810E946405E981FA81C9
:100A70008285992782709070009729F0E981FA8128
:100A800084850E94040322960FB6F894DEBF0FBE41
:100A9000CDBFDF91CF910895CF93DF93CDB7DEB770
:100AA00022970FB6F894DEBF0FBECDBF89839A831D
:100AB000E981FA81108222960FB6F894DEBF0FBE4C
:100AC000CDBFDF91CF910895CF93DF93CDB7DEB740
:100AD00022970FB6F894DEBF0FBECDBF89839A83ED
:100AE000E981FA818685282F3327932F822F8295DB
:100AF0009295907F9827807F9827821B930BF92FE0
:100B0000E82FE05AFF4F81E0808322960FB6F894D9
:100B1000DEBF0FBECDBFDF91CF910895CF93DF939E
:100B2000CDB7DEB722970FB6F894DEBF0FBECDBFAC
:100B300089839A83E981FA8181E0808322960FB6C6
:100B4000F894DEBF0FBECDBFDF91CF910895CF9354
:100B5000DF93CDB7DEB722970FB6F894DEBF0FBE96
:100B6000CDBF89836A830FB6F8940F928981282FAD
:100B70003327932F822F820F931FB92FA82FAA5CA0
:100B8000BE4F8981282F3327932F822F820F931FE7
:100B9000F92FE82FEA5CFE4F90818A81892B8C9394
:100BA0008981282F3327932F822F820F931FF92FAC
:100BB000E82FE95CFE4F80810E9404030F900FBE76
:100BC00022960FB6F894DEBF0FBECDBFDF91CF9156
:100BD0000895CF93DF93CDB7DEB723970FB6F89480
:100BE000DEBF0FBECDBF89830FB6F8940F92898107
:100BF000282F3327932F822F820F931FF92FE82F4F
:100C0000EA5CFE4F8081482F552780916301282F91
:100C10003327932F822F820F931FF92FE82FEE5047
:100C2000FF4F8081918184239523009789F18981E9
:100C3000282F3327932F822F820F931F482F592F4E
:100C40004A5C5E4F8981282F3327932F822F820F92
:100C5000931FB92FA82FAA5CBE4F80916301282F44
:100C60003327932F822F820F931FF92FE82FEE50F7
:100C7000FF4F8081982F90958C918923F52FE42F39
:100C800080830F900FBE81E090E08A839B8304C035
:100C90000F900FBE1A821B828A819B8123960FB60A
:100CA000F894DEBF0FBECDBFDF91CF910895FFCF87
:100CB0000102640000006400000002100400020150
:100CC00002701700007017000002101000100102DF
:100CD00001000000010000000210010000010201FB
:100CE00000000001000000021040000001020200AC
:100CF00000000200000002100200100102060000C5
:100D000000060000000210A0001001020100000017
:100D1000010000000210080010010203000000039F
:100D2000000000010780001000010203040506070F
:100D30000001A101B101C101D701E701F7010702DB
:100D4000170201000200040008001000200040000B
:100D50008000000100020004000800100020004094
:100D60000080FF00000100030007000F001F003F8C
:100D7000007F00FF00FF01FF03FF07FF0FFF1FFFC2
:060D80003FFF7FFFFF00B2
:00000001FF
