:100000000C9430000C9450000C9450000C94500050
:100010000C9450000C9450000C9450000C947800F8
:100020000C9452000C9450000C9450000C9450000E
:100030000C949E000C9450000C9450000C945000B2
:100040000C9450000C9450000C9450000C945000F0
:100050000C9450000C9450000C9450000C945000E0
:1000600011241FBECFEFDFE0DEBFCDBF10E0A0E662
:10007000B0E0E4E4F9E00FEF03950BBF04C0C895CE
:100080000D923196C8F3A03FB107C9F711E0A0EF78
:10009000B0E001C01D92A331B107E1F70C94260135
:1000A0000C9400001F920F920FB60F9211242F9301
:1000B0003F934F935F936F937F938F939F93AF93F0
:1000C000BF93EF93FF938DE990E00E944603FF9169
:1000D000EF91BF91AF919F918F917F916F915F91C0
:1000E0004F913F912F910F900FBE0F901F90189539
:1000F0001F920F920FB60F9211242F933F934F939D
:100100005F936F937F938F939F93AF93BF93EF937F
:10011000FF938091B9000E944402FF91EF91BF913B
:10012000AF919F918F917F916F915F914F913F918F
:100130002F910F900FBE0F901F9018951F920F9246
:100140000FB60F9211242F933F934F935F936F93AA
:100150007F938F939F93AF93BF93EF93FF9391E020
:100160009093F0008091F400890F8093F40084361E
:1001700049F49093F1008091F500890F8093F50088
:100180001092F4008091F5008C3349F49093F200C2
:100190008091F6008F5F8093F6001092F5008091B9
:1001A000F6008C3321F49093F3001092F60060E097
:1001B00089EF90E00E941C036091F100613021F40E
:1001C0008AEF90E00E941C038091F200813029F4B4
:1001D00060E08BEF90E00E941C038091F30081307F
:1001E00029F460E08CEF90E00E941C031092F00074
:1001F0001092F1001092F2001092F300FF91EF9133
:10020000BF91AF919F918F917F916F915F914F912E
:100210003F912F910F900FBE0F901F9018958FEF69
:100220008ABB87BB88BB11BA89B7806C89BF8AB784
:10023000806A8ABF8CE990E08BBD80E49CE98ABD2E
:1002400089E08EBD87B7806187BF0895CFEFDFE07B
:10025000DEBFCDBF0E940F010E94660280E090E0E9
:100260000C94A10461507040804090406F3F2FEF8C
:1002700072072FEF82072FEF920731F000006150D5
:10028000710981099109D0F70895789488B391E0B4
:10029000892788BB0E9452020895789488B392E01F
:1002A000892788BB0E9452020895789488B394E00D
:1002B000892788BB0E9452020895789488B398E0F9
:1002C000892788BB0E9452020895789488B390E1F0
:1002D000892788BB0E9452020895789488B390E2DF
:1002E000892788BB81E00E946E04F92FE82F85EAF8
:1002F00090E0A0E0B0E080839183A283B38381E0AB
:100300000E9432040E9452020895789488B390E4C7
:10031000892788BB81E00E944304882361F00E9402
:100320007904F92FE82F808188BB60EA76E881E0C4
:1003300090E00E9432010E9452020895789488B39E
:1003400090E8892788BB0E94520208950FB6F8945E
:100350000F9280911101882309F47BC080911101D3
:100360009091100189230E947902982F80911201A7
:100370008F3F09F460C080911201891708F069C0AD
:100380000F921F922F923F924F925F926F927F92A5
:100390008F929F92AF92BF92CF92DF92EF92FF9295
:1003A0000F931F932F933F934F935F936F937F937D
:1003B0008F939F93AF93BF93CF93DF93EF93FF936D
:1003C0000FB60F92809112018F939093120180913A
:1003D0001201E82FFF27EE0FFF1FEE58FF4F01908D
:1003E000F081E02D09958F91809312018091120187
:1003F0000F900FBEFF91EF91DF91CF91BF91AF9121
:100400009F918F917F916F915F914F913F912F912C
:100410001F910F91FF90EF90DF90CF90BF90AF9022
:100420009F908F907F906F905F904F903F902F9014
:100430001F900F900EC09093120180911201E82F2F
:10044000FF27EE0FFF1FEE58FF4F0190F081E02DC8
:1004500009950F900FBE08950FB6F8940F928091F2
:1004600011010E9479028093120180911201E82FFC
:10047000FF27EE0FFF1FEE58FF4F0190F081E02D98
:1004800009950F900FBE0895982F0FB6F8940F920C
:1004900080911101892B809311010E94A6010F9078
:1004A0000FBE0895F89480911201E82FFF27EE0FF8
:1004B000FF1FE355FF4F9081909580911101892393
:1004C000809311018FEF8093120108957894109218
:1004D00011018FEF8093100180931201809111011F
:1004E0008823E1F30E942C02809111018823D1F727
:1004F000F5CF8031D8F0803488F0282F332727FDBE
:100500003095209530952227330F221F332787E01F
:1005100090E0821B930B282F392F19C0803218F0DE
:1005200025E030E014C024E030E011C0843040F019
:10053000883018F023E030E00AC022E030E007C045
:10054000823018F021E030E002C020E030E0932F4C
:10055000822F0895CF93DF930FB6F8940F92C82F90
:10056000DD27C05ADF4F88819091CD008917ACF00C
:10057000892F0E94F80288818093CD00E82FFF2701
:10058000E7FDF095EE0FFF1FE253FF4F8091100142
:100590009281892B8095809310010F900FBEDF917F
:1005A000CF9108950FB6F8940F92E82FFF27E05AE5
:1005B000FF4F90818091CD009817B9F48DEC90E0B9
:1005C0000E9409038091CD00E82FFF27E7FDF095F9
:1005D000EE0FFF1FE253FF4F80911001928189239C
:1005E0008095809310010E94A6010F900FBE089580
:1005F000982F0FB6F8940F928091FD00EEE0F1E095
:10060000E80FF11D90838F5F8093FD000F900FBE68
:100610000895B92FA82F0FB6F8940F928091FD007E
:1006200081508093FD00EEE0F1E0E80FF11D808144
:100630008C930F900FBE08950F931F93CF93DF936A
:10064000482F592F262F332721153105D1F0042F9C
:10065000152FD32FC22FF12FE02F81910E2F1F2F97
:10066000282F3327932F822F44E0880F991F4A9514
:10067000E1F7821B930B82579F4F0E9446032197FD
:1006800051F7DF91CF911F910F910895CF93DF9391
:10069000D92FC82F8881813011F58E819F81A8853F
:1006A000B9850197A109B1098E839F83A887B9876E
:1006B0000097A105B10599F48C2F9D2F0E9472031C
:1006C0008A819B81AC81BD818E839F83A887B987F6
:1006D0008981813021F48C2F9D2F0E949303DF911B
:1006E000CF910895CF93DF93D92FC82F8A8580FFAC
:1006F00004C06C858B850E94AE038A8582FF03C08F
:100700008D850E9432048A8583FF04C08C2F9D2F23
:100710000E9497038A8581FF03C08C850E94440252
:10072000DF91CF910895F92FE82F10820895F92FC6
:10073000E82F86859927F92FE82F54E0EE0FFF1F49
:100740005A95E1F7E81BF90BE257FF4F81E08083F0
:100750000895F92FE82F81E0808308950FB6F8946B
:100760000F92E82FFF27EE0FFF1FE950FF4F808108
:10077000862B808381810E9444020F900FBE0895D2
:100780000FB6F8940F92A82FBB27AA0FBB1FA95032
:10079000BF4F4C91242F332780911201E82FFF2760
:1007A000EE0FFF1FE355FF4F8081918128233923EE
:1007B000232B89F080911201E82FFF27EE0FFF1FF6
:1007C000E355FF4F8081809548234C930F900FBED7
:1007D00081E090E008950F900FBE80E090E00895D2
:1007E0000FB6F8940F92E82FFF27EE0FFF1FE65782
:1007F000FF4F8081862B808381810E9444020F906D
:100800000FBE08950FB6F8940F92A82FBB27AA0F1A
:10081000BB1FA657BF4F4C91242F33278091120145
:10082000E82FFF27EE0FFF1FE355FF4F80819181D7
:1008300028233923232B89F080911201E82FFF27E9
:10084000EE0FFF1FE355FF4F8081809548234C93A7
:100850000F900FBE81E090E008950F900FBE80E0F2
:1008600090E008950FB6F8940F92E82FFF27EE0F4F
:10087000FF1FEE0FFF1FEE57FF4F60810E94F00336
:100880000F900FBE0895CF93C82F0FB6F8940F9214
:100890000E9402048823E1F0EC2FFF27EE0FFF1FD8
:1008A000EE0FFF1FEE57FF4F80911201A82FBB27BD
:1008B000AA0FBB1FAE59BF4F43816D917C918181BF
:1008C00092810E948F040F900FBE81E090E004C0DF
:1008D0000F900FBE80E090E0CF910895E82FFF27A2
:1008E000EE0FFF1FEE0FFF1FEE57FF4F818192812A
:1008F000089580911201E82FFF27EE0FFF1FEE5998
:10090000FF4F808191810895E82FFF27EE0FFF1F91
:10091000EE0FFF1FEE57FF4F838199270895282F71
:10092000392F41504F3F61F0E42FFF27B72FA62FFB
:10093000AE0FBF1FE20FF31F80818C934150A0F7D1
:040940000895FFCF48
:1009440000010000000000010000000004010A0191
:10095400000045014D0155015D0165016D018501F1
:100964009E0160FE00024206010400600042010292
:10097400010000000100000002000100000102016A
:10098400000000010000000400000000010100025A
:100994000004000800100020004000800000010056
:1009A40002000400080010002000400080FF000046
:1009B4000100030007000F001F003F007F00FF003D
:1009C400FF01FF03FF07FF0FFF1FFF3FFF7FFFFF35
:00000001FF
