:100000000C9430000C9450000C9450000C94500050
:100010000C9450000C9450000C9450000C947E00F2
:100020000C9452000C9450000C9450000C9450000E
:100030000C9450000C9450000C9450000C94500000
:100040000C9450000C9450000C9450000C945000F0
:100050000C9450000C9450000C9450000C945000E0
:1000600011241FBECFEFDFE0DEBFCDBF10E0A0E662
:10007000B0E0E0E4F7E00FEF03950BBF04C0C895D4
:100080000D923196C8F3AA3AB107C9F710E0AAEA6F
:10009000B0E001C01D92A03BB107E1F70C94C20093
:1000A0000C9400001F920F920FB60F9211242F9301
:1000B0003F934F935F936F937F938F939F93AF93F0
:1000C000BF93EF93FF93CF93DF93CDB7DEB78091CC
:1000D00068000E942702DF91CF91FF91EF91BF91BD
:1000E000AF919F918F917F916F915F914F913F91D0
:1000F0002F910F900FBE0F901F9018951F920F9287
:100100000FB60F9211242F933F934F935F936F93EA
:100110007F938F939F93AF93BF93EF93FF93CF936F
:10012000DF93CDB7DEB7809166000E942702DF9192
:10013000CF91FF91EF91BF91AF919F918F917F915F
:100140006F915F914F913F912F910F900FBE0F9044
:100150001F901895CF93DF93CDB7DEB78FEF8093C5
:100160003700109238001092310080915900806C55
:100170008093590080915A00806A80935A00DF91E1
:10018000CF910895CFEFDFE0DEBFCDBF0E94AA0080
:100190000E94670280E090E00C949F03CF93DF936E
:1001A000CDB7DEB724970FB6F894DEBF0FBECDBF34
:1001B00069837A838B839C8389819A81AB81BC819B
:1001C0000197A109B10989839A83AB83BC838F3FCF
:1001D0002FEF92072FEFA2072FEFB20709F402C00B
:1001E0000000EACF24960FB6F894DEBF0FBECDBF55
:1001F000DF91CF910895CF93DF93CDB7DEB7789499
:100200009091380080E489278093380060E97FE589
:1002100081E090E00E94CE0080E00E94CC028091BC
:1002200068000E9427029091380080E4892780931B
:10023000380060E97FE581E090E00E94CE0080E038
:100240000E9412039091380080E48927809338003F
:1002500060E97FE581E090E00E94CE000E944802C4
:10026000DF91CF910895CF93DF93CDB7DEB7789428
:100270009091380080E889278093380060E573EC1E
:1002800080E090E00E94CE0081E00E94CC0290913C
:10029000380080E889278093380060E573EC80E0BF
:1002A00090E00E94CE0081E00E94120390913800FD
:1002B00080E889278093380060E573EC80E090E067
:1002C0000E94CE000E944802DF91CF910895CF9303
:1002D000DF93CDB7DEB721970FB6F894DEBF0FBE20
:1002E000CDBF0FB6F8940F929091AE008091AD0003
:1002F00089230E947C0289838091AF008F3F09F49B
:1003000066C099818091AF00891708F073C00F9281
:100310001F922F923F924F925F926F927F928F9295
:100320009F92AF92BF92CF92DF92EF92FF920F9384
:100330001F932F933F934F935F936F937F938F936D
:100340009F93AF93BF93CF93DF93EF93FF930FB63A
:100350000F928091AF008F9389818093AF0080913D
:10036000AF00282F3327932F822F820F931FF92F4F
:10037000E82FEE59FF4F0190F081E02D09958F9104
:100380008093AF008091AF000F900FBEFF91EF916F
:10039000DF91CF91BF91AF919F918F917F916F919D
:1003A0005F914F913F912F911F910F91FF90EF908F
:1003B000DF90CF90BF90AF909F908F907F906F9085
:1003C0005F904F903F902F901F900F9013C08981A6
:1003D0008093AF008091AF00282F3327932F822F77
:1003E000820F931FF92FE82FEE59FF4F0190F081F4
:1003F000E02D09950F900FBE21960FB6F894DEBF41
:100400000FBECDBFDF91CF910895CF93DF93CDB7CE
:10041000DEB70FB6F8940F928091AE000E947C0276
:100420008093AF008091AF00282F3327932F822F26
:10043000820F931FF92FE82FEE59FF4F0190F081A3
:10044000E02D09950F900FBEDF91CF910895CF93C6
:10045000DF93CDB7DEB721970FB6F894DEBF0FBE9E
:10046000CDBF89830FB6F8940F928091AE00998129
:10047000892B8093AE000E9467010F900FBE2196DA
:100480000FB6F894DEBF0FBECDBFDF91CF910895B8
:10049000CF93DF93CDB7DEB7F8948091AF00282FCC
:1004A0003327932F822F820F931FF92FE82FEA59BA
:1004B000FF4F8081982F90958091AE008923809383
:1004C000AE008FEF8093AF00DF91CF910895CF936F
:1004D000DF93CDB7DEB778941092AE008FEF8093A4
:1004E000AD008FEF8093AF008091AE00882309F4B8
:1004F000FBCF0E940502F8CFCF93DF93CDB7DEB7D5
:1005000023970FB6F894DEBF0FBECDBF89838981D4
:100510008031E8F08981803468F0898188232CF467
:1005200087E090E08A839B832CC086E090E08A83FA
:100530009B8327C08981803228F085E090E08A8300
:100540009B831FC084E090E08A839B831AC08981CB
:10055000843068F08981883028F083E090E08A83D5
:100560009B830FC082E090E08A839B830AC08981CD
:10057000823028F081E090E08A839B8302C01A8257
:100580001B828A819B8123960FB6F894DEBF0FBE33
:10059000CDBFDF91CF910895CF93DF93CDB7DEB775
:1005A00021970FB6F894DEBF0FBECDBF89830FB67B
:1005B000F8940F9289819927F92FE82FE05AFF4F7D
:1005C000908180918600981714F1809186000E9496
:1005D000510389819927F92FE82FE05AFF4F808135
:1005E0008093860080918600282F332727FD309541
:1005F000932F822F820F931FF92FE82FE757FF4F7A
:100600009091AD008081892B80958093AD000F90F3
:100610000FBE21960FB6F894DEBF0FBECDBFDF919F
:10062000CF910895CF93DF93CDB7DEB721970FB663
:10063000F894DEBF0FBECDBF89830FB6F8940F923A
:1006400089819927F92FE82FE05AFF4F90818091F7
:1006500086009817D9F486E890E00E94770380918D
:100660008600282F332727FD3095932F822F820F66
:10067000931FF92FE82FE757FF4F9091AD0080812E
:10068000892380958093AD000E9467010F900FBE73
:1006900021960FB6F894DEBF0FBECDBFDF91CF918C
:1006A0000895CF93DF93CDB7DEB721970FB6F894B7
:1006B000DEBF0FBECDBF89830FB6F8940F92AAEAB2
:1006C000B0E02C91822F9927F92FE82FE555FF4FA5
:1006D000898180832F5F2C930F900FBE21960FB6D8
:1006E000F894DEBF0FBECDBFDF91CF910895CF93B9
:1006F000DF93CDB7DEB722970FB6F894DEBF0FBEFB
:10070000CDBF89839A830FB6F8940F92A981BA81DD
:100710008091AA0081508093AA009927F92FE82F91
:10072000E555FF4F80818C930F900FBE22960FB638
:10073000F894DEBF0FBECDBFDF91CF910895FFCFFC
:100740000001FB003301010002000400080010005A
:10075000200040008000000100020004000800109A
:10076000002000400080FF00000100030007000F90
:10077000001F003F007F00FF00FF01FF03FF07FF96
:0A0780000FFF1FFF3FFF7FFFFF0088
:00000001FF
